:020000040000FA
:060000000A128A110C280F
:10000800FE00030EF0000A08F1000A168A15942E65
:100018000A128A110F28FB018313C9308400ED30BE
:100028000A168A1515220A128A1183010A168A11DC
:10003800462D83160313C000A930B100872E253042
:10004800450603192828292833284008840045082C
:10005800831380000130FF007F08C007872EB2019C
:10006800B301280884000A128A1100270A128A118B
:100078002E3A031D402841288E2833170130FF00EF
:100088007F08A807BE01BF017D280A30F2000030B2
:10009800F300831603133F08F5003E08F4000A1224
:1000A8008A1501200A128A11730883160313BF00E8
:1000B8007208BE00280884000A128A1100270A1252
:1000C8008A11D03E83120313EA00FF300318003070
:1000D800EB006A0883160313BE070318BF0A8312CE
:1000E80003136B0883160313BF070130FF007F0853
:1000F800A807280884000A128A1100270A128A1100
:100108000A168A1541220A128A1103188C288D288A
:1001180049289628BE01BF01331696288316031373
:100128003315B428013083160313A807FF302807B6
:1001380084000A128A1100270A128A11C500831244
:100148000313EA00EB016B08003A0319AC28872E69
:100158006A08003A0319992E663A03199228872EDD
:100168000030320583120313EA00073083160313A5
:10017800330583120313EB006A086B040319C528BF
:10018800C628362E83160313331ECB28CC28D02836
:100198000630BE000030BF00310884008313000819
:1001A800C100840A0008C200840A0008C300840A47
:1001B8000008C4000430FF007F08B1074408F500B8
:1001C8004308F4004208F3004108F2000030F90047
:1001D8000030F8000030F7000030F6000A168A15E3
:1001E800F0250A128A110318FA28FB281829831601
:1001F80003134408F5004308F4004208F3004108DB
:10020800F2000A128A11F5270A128A117508831654
:100218000313C4007408C3007308C2007208C10045
:100228000330B2040030B30483160313B801B901D4
:100238004408F5004308F4004208F3004108F200BE
:100248000030F9000030F8000030F7000030F60008
:100258000A168A15D0230A128A1103183429352957
:10026800352A031083160313430D440D823EB8004C
:10027800FF3003180030B900FF30B8070318B90A77
:10028800FF30B9070330F2000030F3003908F500F9
:100298003808F4000A128A1501200A128A11730814
:1002A80083160313B9007208B8000A3083120313C7
:1002B800A0000030A100831603133908831203132A
:1002C800A30083160313380883120313A2000A1627
:1002D8008A1587250A128A118312031321088316A7
:1002E8000313B90083120313200883160313B800FD
:1002F800B91F7F2980298629FF30B8070318B90A52
:10030800FF30B9073803FF3A0A128A159D240A12EA
:100318008A1183120313450883160313BD00831241
:100328000313440883160313BC0083120313430802
:1003380083160313BB0083120313420883160313A7
:10034800BA00440883120313AB008316031343084F
:1003580083120313AA00831603134208831203139C
:10036800A90083160313410883120313A8008316F8
:1003780003133D0883120313AF00831603133C08CD
:1003880083120313AE00831603133B08831203136F
:10039800AD00831603133A0883120313AC000A1244
:1003A8008A1558210A128A11831203132B088316FF
:1003B8000313BD00831203132A0883160313BC001A
:1003C80083120313290883160313BB008312031334
:1003D800280883160313BA003D08F5003C08F4000A
:1003E8003B08F3003A08F2003F30F9008030F8008B
:1003F8000030F7000030F6000A168A15F0250A12B8
:100408008A110318082A092A122AFF3083160313AF
:10041800B8070318B90AFF30B907352A831603133A
:100428003D08F5003C08F4003B08F3003A08F200E8
:100438004130F9002030F8000030F7000030F600B5
:100448000A168A15F0250A128A11031C2C2A2D2A4D
:10045800352A013083160313B8070318B90A003088
:10046800B907831603133F08803AFF0080307F02E4
:10047800031D402A0D303E020318432A442A8B2AC2
:10048800831603133E080A168A11E3200A128A11FA
:10049800831203134508D9004408D8004308D7003D
:1004A8004208D60083160313440883120313DD00A1
:1004B80083160313430883120313DC008316031304
:1004C800420883120313DB008316031341088312C7
:1004D8000313DA000A168A11EE220A128A1183120D
:1004E8000313590883160313C4008312031358080F
:1004F80083160313C30083120313570883160313C9
:10050800C20083120313560883160313C10083160F
:1005180003133908803AFF0080307F02031D962AB2
:100528000A3038020318992A9A2AEB2A83160313E9
:100538004408F5004308F4004208F3004108F200BB
:100548000030F9000030F8000030F7000030F60005
:100558000A168A15D0230A128A110318B42AB52A52
:100568005D2B83160313440883120313D8008316E4
:100578000313430883120313D70083160313420897
:1005880083120313D600831603134108831203133F
:10059800D5000A128A1526200A128A11831203131B
:1005A8005808570456045504031DDB2ADC2A5D2B22
:1005B800831603133908803AFF0080307F02031D39
:1005C800E72A02303802031CEA2AEB2A5D2B83163D
:1005D80003133D08F5003C08F4003B08F3003A0813
:1005E800F2004030F9008930F8007030F7005F30D1
:1005F800F6000A168A15F0250A128A110318052B27
:10060800062B0F2BF73083160313B8070318B90A04
:10061800FF30B907172BF83083160313B8070318F0
:10062800B90AFF30B90738080A128A159D240A1238
:100638008A1183120313450883160313BD0083121E
:100648000313440883160313BC00831203134308DF
:1006580083160313BB008312031342088316031384
:10066800BA004408F5004308F4004208F3004108C2
:10067800F2003D08F9003C08F8003B08F7003A088A
:10068800F6000A168A112B200A128A117508831699
:100698000313B7007408B6007308B5007208B400F5
:1006A8000030C4000030C3000030C2000030C10078
:1006B800C32B83160313440883120313D80083162D
:1006C8000313430883120313D70083160313420846
:1006D80083120313D60083160313410883120313EE
:1006E800D5000A128A1526200A128A1183120313CA
:1006F800580883160313B700831203135708831689
:100708000313B60083120313560883160313B500A8
:1007180083120313550883160313B4003708F50032
:100728003608F4003508F3003408F20000300A12E5
:100738008A159E200A128A11750883160313A300CE
:100748007408A2007308A1007208A0004408A7005A
:100758004308A6004208A5004108A4000A168A1505
:1007680020240A128A11831603132308C4002208BE
:10077800C3002108C2002008C100B801B901C501A1
:10078800C50A450883120313EA0001300310EA0D75
:10079800FF3E031DCA2B03106A0D693E84000A122E
:1007A8008A1100270A128A11EB000A128A110027FF
:1007B8000A128A11EC000A128A1100270A128A11F9
:1007C800ED000A128A1100270A128A11EE006E083B
:1007D800831603133702031D072C831203136D08B6
:1007E800831603133602031D072C831203136C08A8
:1007F800831603133502031D072C831203136B089A
:1008080083160313340203180A2C0B2C0C2C162CF9
:100818000130FF007F08C5070A304506031D152C67
:10082800162CC52B0330320583120313EA0000305F
:1008380083160313330583120313EB006A086B0452
:100848000319272C282C992C83160313400884009D
:100858002D30831380000130FF007F08C007992CDA
:10086800450883120313EA0001300310EA0DFF3E26
:10087800031D392C03106A0D693E84000A128A117F
:1008880000270A128A11F2000A128A1100270A1296
:100898008A11F3000A128A1100270A128A11F40039
:1008A8000A128A1100270A128A11F5008316031307
:1008B8003708F9003608F8003508F7003408F6005C
:1008C8000A168A151F250A128A117508831603133A
:1008D800BD007408BC007308BB007208BA00003081
:1008E800F5000030F4000030F3000A30F2003D0853
:1008F800F9003C08F8003B08F7003A08F6000A1629
:100908008A1570240A128A11750883160313BD000C
:100918007408BC007308BB007208BA004008840061
:100928003A08303E831380002F2C013083160313BE
:10093800C502450A031DA12CA22C342CB42C831605
:100948000313400884003030831380000130FF0017
:100958007F08C007FF30B8070318B90AFF30B90786
:100968003908803AFF0080307F02031DBD2C01301A
:1009780038020318C02CC12CA32C831603133F087C
:10098800803AFF0080307F02031DCC2C09303E02E4
:10099800031CCF2CD02CD52C083083160313C5008C
:1009A800D92C831603133E08C50045088312031388
:1009B800EA00EB016A0883160313BE0283120313CD
:1009C8006B0883160313031CBF03BF0245080319F2
:1009D800EE2CEF2CF82C400884002E308313800076
:1009E8000130FF007F08C00745080A128A159D24B8
:1009F8000A128A1183120313450883160313B000E1
:100A080083120313440883160313AF0083120313DE
:100A1800430883160313AE00831203134208831698
:100A28000313AD00300883120313AF0083160313BA
:100A38002F0883120313AE00831603132E088312A4
:100A48000313AD00831603132D0883120313AC00A0
:100A580083160313440883120313AB00831603138E
:100A6800430883120313AA00831603134208831250
:100A78000313A90083160313410883120313A80064
:100A88000A128A1558210A128A11831203132B0895
:100A9800D8002A08D7002908D6002808D5000A1245
:100AA8008A1526200A128A118312031358088316FE
:100AB8000313B70083120313570883160313B600F2
:100AC80083120313560883160313B5008312031306
:100AD800550883160313B400182E45088312031310
:100AE800EA0001300310EA0DFF3E031D762D0310C6
:100AF8006A0D693E84000A128A1100270A128A11B7
:100B0800F2000A128A1100270A128A11F3000A1247
:100B18008A1100270A128A11F4000A128A11002782
:100B28000A128A11F500831603133708F9003608EC
:100B3800F8003508F7003408F6000A168A151F254C
:100B48000A128A11750883160313BD007408BC00C5
:100B58007308BB007208BA000030F5000030F400DA
:100B68000030F3000A30F2003D08F9003C08F800B4
:100B78003B08F7003A08F6000A168A1570240A128C
:100B88008A11750883160313BD007408BC00730826
:100B9800BB007208BA00400884003A08303E83134C
:100BA80080000130FF007F08C00745088312031347
:100BB800EA0001300310EA0DFF3E031DDE2D03108D
:100BC8006A0D693E84000A128A1100270A128A11E6
:100BD800F2000A128A1100270A128A11F3000A1277
:100BE8008A1100270A128A11F4000A128A110027B2
:100BF8000A128A11F500831603133708F90036081C
:100C0800F8003508F7003408F6000A168A1570242B
:100C18000A128A11750883160313B7007408B60000
:100C28007308B5007208B4000130C502450A031DF7
:100C38001E2E1F2E712D2F2E400884003030831356
:100C480080000130FF007F08C007FF30BE0703188F
:100C5800BF0AFF30BF073E083F04031D342E352E60
:100C6800202E872E831603133E083F04031D3D2EB6
:100C78003E2E4C2E3708360435043404031D452E09
:100C8800462E4C2E0130BE070318BF0A0030BF079E
:100C98003F08803A803C031D532E3E084502031846
:100CA800562E572E582E6B2E831603133F08803A64
:100CB80083120313EA0080306A02031D672E83162D
:100CC800031345083E0203186A2E6B2E6B2E033061
:100CD80083160313320583120313EA0000308316C8
:100CE8000313330583120313EB006A086B0403191B
:100CF8007E2E7F2E872E83160313400884002D3006
:100D0800831380002E28013083160313A807FF30B1
:100D1800280784000A128A1100270A128A11C500BE
:100D28004508031D982E992E23288316031340087F
:100D3800840083138001080000300A168A15BB223C
:100D48000A128A111A30F700F830F600F60BAA2EAC
:100D5800F70BAA2E000003300A168A1566220A121B
:100D68008A110730F7007D30F600F60BB92EF70B25
:100D7800B92E03300A168A1566220A128A110F3014
:100D8800F7004730F600F60BC72EF70BC72ECC2E10
:100D980003300A168A1566220A128A1102300A16C8
:100DA8008A1566220A128A1102300A168A156622E4
:100DB8000A128A1108300A168A1566220A128A113E
:100DC80000300A168A1566220A128A110C300A1691
:100DD8008A1566220A128A1100300A168A156622B6
:100DE8000A128A1106300A168A1566220A128A1110
:020DF8000800F1
:100E000007308A000408840A820700340034003462
:100E100080343F3400340034203441340034003412
:100E2000C8344234003400347A344434003440341A
:100E30001C34463400345034C33447340034243432
:100E4000743449348034963418344B342034BC34F0
:100E5000BE344C3428346B346E344E34F93402349E
:100E600015345034EC347834AD346034CA34F23450
:100E7000493471340034003480343F34CD34CC34C0
:100E8000CC343D340A34D73423343C346F341234F8
:100E900083343A341734B734D1343834AC34C534AD
:100EA00027343734BD343734863435349534BF3441
:100EB000D63433347734CC342B3432345F3470341A
:100EC00089343034FF34E634DB342E340834E534EE
:100ED0003C341E3460344234A2340D3401340034C6
:100EE000003400340A3400340034003464340034F4
:100EF00000340034E8340334003400341034273430
:100F000000340034A0348634013400344034423498
:100F10000F34003480349634983400340034E13493
:100F2000F53405340034CA349A343B3454346534CF
:100F30006D3470343A34203425342E3430346634F1
:100F40002E343034003449346C3475346D342034EC
:100F50004E34613474347534723461346C3400341A
:100F600042346134693478346134003441346C344F
:100F7000743461340034720873040319C02FC12F14
:100F8000F02FF601F60ACF2F01300310F20DF30D0A
:100F9000FF3E031DC52F0130FF007F08F607F31F3A
:100FA000D22FD32FC42F73087502031DD92F7208B7
:100FB0007402031CDC2FDD2FE32F7208F402730888
:100FC000031CF503F50201300310F30CF20CFF3E95
:100FD000031DE42F0130F602031DEF2FF02FD32F56
:100FE0007508F3007408F2000800750874047304AF
:100FF00072040319FC2FFD2FFF2F8030F506080027
:10100200F601F701721C062807280D287408F60756
:101012000318F70A7508F70701300310F40DF50DF0
:10102200FF3E031D0E2801300310F30CF20CFF3EAD
:10103200031D152872087304031D20282128032884
:101042007708F3007608F2000800031083120313F6
:10105200570D580DDE005E08031D302831283A284E
:101062000030D8000030D7000030D6000030D50064
:101072009D285508D9005608DA005708DB005808A1
:10108200DC001F300310DC0CDB0CDA0CD90CFF3E49
:10109200031D43285908DD00D717FF30D505FF305F
:1010A200D605FF30D7050030D8059630DE02DE1FA8
:1010B2005B285C2876285E08803A973E03186228EF
:1010C20063286428312801300310D80CD70CD60CC1
:1010D200D50CFF3E031D65280130FF007F08DE07A7
:1010E200031D7428752864288D2820305E02031C95
:1010F2007B287C28882831280130D9000310D50D9F
:10110200D60DD70DD80DD90B7F280130DE025E082F
:10111200031D8C288D287D285D08031991289228AB
:101122009D28D509D609D709D809D50A0319D60A9F
:101132000319D70A0319D80A080083120313A0005F
:1011420020080319A528A628BA28F51FA928AA2825
:10115200BA287209A2007309A3007409A4007509D0
:10116200A500A20A0319A30A0319A40A0319A50ACE
:10117200C2287508A5007408A4007308A3007208A9
:10118200A2007508740473047204031DC928CA28D6
:10119200D3280030F5000030F4000030F3000030B6
:1011A200F20057299630A100E3280130FF007F08A2
:1011B200A10701300310A50CA40CA30CA20CFF3E46
:1011C200031DDB28FE302505031DE828E928D62863
:1011D20005290130FF007F08A1070130A207003076
:1011E20003180130A307003003180130A4070030B0
:1011F20003180130A50701300310A50CA40CA30CA1
:10120200A20CFF3E031DFD28FF302505031D0A2900
:101212000B29EA2817290130A1020130F600031038
:10122200A20DA30DA40DA50DF60B1029A41B1A29BE
:101232001B292129023021020318202921290C29E6
:101242002118242925292D29FF30A205FF30A305C5
:101252007F30A405FF30A5050310A10C2108F6007C
:10126200F701F801F90118300310F60DF70DF80D2A
:10127200F90DFF3E031D35297608A2047708A30461
:101282007808A4047908A5042008031949294A29E1
:101292004F29F51F4D294E294F29A5172508F5007D
:1012A2002408F4002308F3002208F2000800831245
:1012B20003132B088039B5002B08B0003007BB00A0
:1012C200AA1F6429652966293B143B0803196A2968
:1012D2006B297A293B0A031D6F297029782900306E
:1012E200AB000030AA000030A9000030A800AA1705
:1012F20082290030AB000030AA000030A900003083
:10130200A8002F088039FF007F08B5062F08B0001B
:101312003007BA00AE1F8E298F2990293A143A0855
:10132200031994299529A4293A0A031D99299A296E
:10133200A2290030AF000030AE000030AD00003016
:10134200AC00AE17AC290030AF000030AE00003068
:10135200AD000030AC003A080319B029B129B62912
:101362003B08031DB529B629BF290030AB00003068
:10137200AA000030A9000030A8009C2C2808F20026
:101382002E080A168A1104200A128A15730883127B
:101392000313C1007208C0004008B000B101B201DD
:1013A200B3013308B9003208B8003108B700300879
:1013B200B6004108B000B101B201B3013308BF0069
:1013C2003208BE003108BD003008BC002908F20016
:1013D2002D080A168A1104200A128A15730883122C
:1013E2000313C1007208C0004008B000B101B2018D
:1013F200B3013008B607310803110318013E03197F
:10140200032AB707320803110318013E03190A2AF7
:10141200B807330803110318013E0319112AB9074B
:101422004108B000B101B201B3013008BC07310874
:1014320003110318013E03191F2ABD0732080311C5
:101442000318013E0319262ABE07330803110318A5
:10145200013E03192D2ABF072A08F2002C080A169A
:101462008A1104200A128A15730883120313C10019
:101472007208C0004008B000B101B201B3013008E7
:10148200B607310803110318013E0319492AB707A9
:10149200320803110318013E0319502AB807330812
:1014A20003110318013E0319572AB9074108B00076
:1014B200B101B201B3013008BC07310803110318AE
:1014C200013E0319652ABD07320803110318013EC4
:1014D20003196C2ABE07330803110318013E0319CE
:1014E200732ABF070830B0000310B60DB70DB80D50
:1014F200B90DB00B752A2908F2002C080A168A11B8
:1015020004200A128A15730883120313C100720899
:10151200C0004008B0004108B100B201B301300878
:10152200B607310803110318013E0319992AB707B8
:10153200320803110318013E0319A02AB807330821
:1015420003110318013E0319A72AB9072808F2005C
:101552002D080A168A1104200A128A1573088312AA
:101562000313C1007208C0004008B0004108B10076
:10157200B201B3013008B607310803110318013E66
:101582000319C42AB707320803110318013E0319CD
:10159200CB2AB807330803110318013E0319D22AD4
:1015A200B9070830B0000310B60DB70DB80DB90D6C
:1015B200B00BD42A2808F2002C080A168A1104203B
:1015C2000A128A15730883120313C1007208C0003D
:1015D2004008B0004108B100B201B3013008B607BB
:1015E200310803110318013E0319F82AB70732081C
:1015F20003110318013E0319FF2AB8073308031128
:101602000318013E0319062BB9072908F2002E0818
:101612000A168A1104200A128A1573088312031308
:10162200C1007208C0004008B0004108B100B20118
:10163200B3013008BC07310803110318013E031936
:10164200232BBD07320803110318013E03192A2B6D
:10165200BE07330803110318013E0319312BBF07DC
:101662002A08F2002D080A168A1104200A128A1585
:10167200730883120313C1007208C0004008B0004F
:101682004108B100B201B3013008BC0731080311AF
:101692000318013E03194E2BBD073208031103182C
:1016A200013E0319552BBE07330803110318013EEF
:1016B20003195C2BBF072A08F2002E080A168A11AA
:1016C20004200A128A15730883120313C1007208D8
:1016D200C0004008B0004108B100B201B3010830B7
:1016E2000310B00DB10DB20DB30DFF3E031D712BF2
:1016F2003008BC07310803110318013E0319822B7D
:10170200BD07320803110318013E0319892BBE07D6
:10171200330803110318013E0319902BBF07360843
:10172200B0003708B1003808B2003908B3001830E9
:101732000310B30CB20CB10CB00CFF3E031D992B7D
:101742003008BC07310803110318013E0319AA2B04
:10175200BD07320803110318013E0319B12BBE075E
:10176200330803110318013E0319B82BBF070830D1
:10177200B0000310B60DB70DB80DB90DB00BBA2BF2
:101782003B083A07B000B101B10D3008823EC000FB
:1017920031080318013EFF3EC100EC2B0130B000BE
:1017A2000310BC0DBD0DBE0DBF0DB00BD12BB91F6B
:1017B200DB2BDC2BDD2B3C140130B0000310B60D0B
:1017C200B70DB80DB90DB00BDF2BFF30C0070318F2
:1017D200C10AFF30C107BE1FEF2BF02BCF2BBA017E
:1017E200B91FF42BF52B112CFF303605B000FF305A
:1017F2003705B100FF303805B2007F303905B3003C
:1018020033083204310430040319082C092C0C2C3F
:10181200BA01BA0A112C3C1C0F2C102C112C092CC9
:101822003A080319152C162C472C0130BC0700303E
:1018320003180130BD07003003180130BE07003025
:1018420003180130BF073F1C272C282C472C3C08CB
:10185200B0003D08B1003E08B2003F08B3000130BD
:10186200B400330DB30CB20CB10CB00CB40B322C6F
:101872003308BF003208BE003108BD003008BC008A
:101882000130C0070318C10A0030C1074108803A7D
:10189200FF0080307F02031D502CFF304002031CEA
:1018A200532C542C5F2C7F3083120313BF008030E3
:1018B200BE000030BD000030BC00902C8312031328
:1018C2004108803AFF0080307F02031D6A2C0130FC
:1018D200400203186D2C6E2C7A2C003083120313F5
:1018E200BF000030BE000030BD000030BC00B501BA
:1018F200902C831203134008BB00FF30BC05FF305D
:10190200BD057F30BE050030BF053B1C892C8A2CEB
:101912008B2CBE173B08B0000310300CBF003508FB
:10192200FF007F08BF043F08AB003E08AA003D0845
:10193200A9003C08A800080083120313D400D41F96
:10194200A32CA42C532ED409D40A5408803A123E54
:10195200031CAC2CAD2C972D0A30A0000030A10046
:101962005408F400F501F41BF5036430F200003072
:10197200F3000A168A15C6240A128A1573088312FE
:101982000313A3007208A2000A168A1587250A12F9
:101992008A15831203132008C60001300310C60DF6
:1019A200FF3E031DCF2C0310460D593E84000A1240
:1019B2008A1100270A128A15C7000A128A11002703
:1019C2000A128A15C8000A128A1100270A128A15F9
:1019D200C9000A128A1100270A128A15CA004A0887
:1019E200AB004908AA004808A9004708A8006430CB
:1019F200A0000030A1005408A200A301A21BA3036F
:101A02000A168A1587250A128A15831203132008DB
:101A1200CB0001300310CB0DFF3E031D0B2D031035
:101A22004B0D7D3E84000A128A1100270A128A1584
:101A3200CC000A128A1100270A128A15CD000A1256
:101A42008A1100270A128A15CE000A128A1100276B
:101A52000A128A15CF004F08AF004E08AE004D089B
:101A6200AD004C08AC000A128A1558210A128A15D8
:101A7200831203132B08D3002A08D2002908D100AD
:101A82002808D0000A30F2000030F3005408F400B5
:101A9200F501F41BF5030A168A15C6240A128A15E3
:101AA200720883120313C60001300310C60DFF3EF5
:101AB200031D562D0310460D353E84000A128A116D
:101AC20000270A128A15C7000A128A1100270A1271
:101AD2008A15C8000A128A1100270A128A15C9003B
:101AE2000A128A1100270A128A15CA004A08AB0094
:101AF2004908AA004808A9004708A8005308AF00EF
:101B02005208AE005108AD005008AC000A128A1506
:101B120058210A128A15831203132B08C5002A08BA
:101B2200C4002908C3002808C200FF2F5408803AC5
:101B3200753E031C9D2D9E2D262E0A30F20000308C
:101B4200F3005408F400F501F41BF5030A168A1594
:101B5200C6240A128A15720883120313C6000130C2
:101B62000310C60DFF3E031DB12D0310460D353E79
:101B720084000A128A1100270A128A15C7000A1263
:101B82008A1100270A128A15C8000A128A11002730
:101B92000A128A15C9000A128A1100270A128A1526
:101BA200CA004A08AB004908AA004808A900470829
:101BB200A8000A30A0000030A1005408A200A3012E
:101BC200A21BA3030A168A1587250A128A158312F5
:101BD20003132008CB0001300310CB0DFF3E031D81
:101BE200ED2D03104B0D593E84000A128A11002775
:101BF2000A128A15CC000A128A1100270A128A15C3
:101C0200CD000A128A1100270A128A15CE000A1282
:101C12008A1100270A128A15CF004F08AF004E081A
:101C2200AE004D08AD004C08AC000A128A155821CE
:101C32000A128A15831203132B08C5002A08C4004E
:101C42002908C3002808C200FF2F5408C60001302B
:101C52000310C60DFF3E031D292E0310460D353E0F
:101C620084000A128A1100270A128A15C7000A1272
:101C72008A1100270A128A15C8000A128A1100273F
:101C82000A128A15C9000A128A1100270A128A1535
:101C9200CA004A08C5004908C4004808C3004708EA
:101CA200C200FF2F5408803A123E031C592E5A2EAE
:101CB200442F0A30A0000030A1005408F400F501BE
:101CC200F41BF5036430F2000030F3000A168A15A3
:101CD200C6240A128A15730883120313A30072081A
:101CE200A2000A168A1587250A128A15831203137F
:101CF2002008C60001300310C60DFF3E031D7C2ED6
:101D02000310460D253E84000A128A1100270A128A
:101D12008A15C7000A128A1100270A128A15C800FA
:101D22000A128A1100270A128A15C9000A128A1198
:101D320000270A128A15CA004A08AB004908AA00FD
:101D42004808A9004708A8006430A0000030A1009C
:101D52005408A200A301A21BA3030A168A15872511
:101D62000A128A15831203132008CB0001300310D4
:101D7200CB0DFF3E031DB82E03104B0D493E8400D0
:101D82000A128A1100270A128A15CC000A128A1135
:101D920000270A128A15CD000A128A1100270A1298
:101DA2008A15CE000A128A1100270A128A15CF005C
:101DB2004F08AF004E08AE004D08AD004C08AC0015
:101DC2000A128A1558210A128A15831203132B0844
:101DD200D3002A08D2002908D1002808D0000A30EE
:101DE200F2000030F3005408F400F501F41BF5038F
:101DF2000A168A15C6240A128A1572088312031358
:101E0200C60001300310C60DFF3E031D032F031051
:101E1200460D013E84000A128A1100270A128A1511
:101E2200C7000A128A1100270A128A15C8000A126C
:101E32008A1100270A128A15C9000A128A1100277C
:101E42000A128A15CA004A08AB004908AA004808C3
:101E5200A9004708A8005308AF005208AE00510875
:101E6200AD005008AC000A128A1558210A128A15D0
:101E7200831203132B08C5002A08C4002908C300D3
:101E82002808C200FF2F5408803A753E031C4A2FCF
:101E92004B2FD32F0A30F2000030F3005408F40025
:101EA200F501F41BF5030A168A15C6240A128A15CF
:101EB200720883120313C60001300310C60DFF3EE1
:101EC200031D5E2F0310460D013E84000A128A1183
:101ED20000270A128A15C7000A128A1100270A125D
:101EE2008A15C8000A128A1100270A128A15C90027
:101EF2000A128A1100270A128A15CA004A08AB0080
:101F02004908AA004808A9004708A8000A30A0000A
:101F12000030A1005408A200A301A21BA3030A16C9
:101F22008A1587250A128A15831203132008CB000B
:101F320001300310CB0DFF3E031D9A2F03104B0DF2
:101F4200253E84000A128A1100270A128A15CC0043
:101F52000A128A1100270A128A15CD000A128A1162
:101F620000270A128A15CE000A128A1100270A12C5
:101F72008A15CF004F08AF004E08AE004D08AD00E5
:101F82004C08AC000A128A1558210A128A158312CB
:101F920003132B08C5002A08C4002908C300280817
:101FA200C200FF2F5408C60001300310C60DFF3EC9
:101FB200031DD62F0310460D013E84000A128A111A
:101FC20000270A128A15C7000A128A1100270A126C
:101FD2008A15C8000A128A1100270A128A15C90036
:101FE2000A128A1100270A128A15CA004A08C50075
:0E1FF2004908C4004808C3004708C2000800A0
:10200800FA00F601F7017208F400F5017408F80007
:102018007508F9007A1C1128122818287808F6077C
:102028000318F70A7908F70701300310F80DF90DBE
:10203800FF3E031D19280310FA0C7A08031D2528F2
:1020480026280E287708F3007608F2000800031007
:10205800740D750D83120313A5002508031D35287B
:1020680036283F280030F5000030F4000030F30037
:102078000030F200E2280310780D790DA40024083E
:10208800031D4728482849283628F417FF30F20549
:10209800FF30F305FF30F4050030F505F817FF3081
:1020A800F605FF30F705FF30F8050030F905003078
:1020B800A3000030A2000030A1000030A0007F3053
:1020C800A502A0302407FA007A08A5022030A4004F
:1020D8000130FA000310A00DA10DA20DA30DFA0BFB
:1020E8006E2879087502031D832878087402031D79
:1020F800832877087302031D832876087202031C5D
:102108008628872896287608F2027708031C770F16
:10211800F3027808031C780FF4027908031C790F7E
:10212800F50220140130FA000310F20DF30DF40D3E
:10213800F50DFA0B98280130A402031DA428A52840
:102148006C28A51FA828A928C3282508803A9F3EDF
:102158000318AF28B028B128362801300310A30C83
:10216800A20CA10CA00CFF3E031DB2280130FF00F9
:102178007F08A507031DC128C228B128DA28203006
:102188002502031CC828C928D52836280130FA009A
:102198000310A00DA10DA20DA30DFA0BCC28013040
:1021A800A5022508031DD928DA28CA282308F5001E
:1021B8002208F4002108F3002008F2000800831226
:1021C8000313D5006E305502031CEB28EC28F929BF
:1021D8003F30AB000030AA000030A9000030A80052
:1021E8006430F7000030F8005508C600C7014608FB
:1021F800F9004708FA000A168A153E230A168A11BA
:10220800770883120313C80001300310C80DFF3E7E
:10221800031D09290310480D7D3E84000A128A1106
:1022280000270A168A11C9000A128A1100270A16FD
:102238008A11CA000A128A1100270A168A11CB00CD
:102248000A128A1100270A168A11CC004C08AF001E
:102258004B08AE004A08AD004908AC000A128A15BE
:1022680058210A168A11831203132B08D4002A084E
:10227800D3002908D2002808D1000A30F70000301E
:10228800F8005508C600C7014608F4004708F500DD
:102298006430F2000030F3000A128A11BB270A16D4
:1022A8008A117308FA007208F9000A168A153E2383
:1022B8000A168A11770883120313C8000130031025
:1022C800C80DFF3E031D63290310480D593E8400C5
:1022D8000A128A1100270A168A11C9000A128A11DD
:1022E80000270A168A11CA000A128A1100270A163C
:1022F8008A11CB000A128A1100270A168A11CC000B
:102308004C08AB004B08AA004A08A9004908A800D5
:102318005408AF005308AE005208AD005108AC0095
:102328000A128A1558210A168A11831203132B08D8
:10233800D0002A08CF002908CE002808CD000A308E
:10234800F2000030F3005508C600C7014608F40043
:102358004708F5000A128A11BB270A168A11720863
:1023680083120313C80001300310C80DFF3E031D7C
:10237800B8290310480D353E84000A128A11002737
:102388000A168A11C9000A128A1100270A168A1128
:10239800CA000A128A1100270A168A11CB000A12EB
:1023A8008A1100270A168A11CC004C08AB004B088A
:1023B800AA004A08A9004908A8005008AF004F0819
:1023C800AE004E08AD004D08AC000A128A1558211F
:1023D8000A168A11831203132B08C5002A08C400A1
:1023E8002908C3002808C200ED2A0B305502031C37
:1023F800FE29FF29AA2A3F30AB000030AA0000308E
:10240800A9000030A8000A30F7000030F80055088D
:10241800C600C7014608F9004708FA000A168A15D7
:102428003E230A168A11770883120313C800013065
:102438000310C80DFF3E031D1C2A0310480D593E0A
:1024480084000A128A1100270A168A11C9000A1282
:102458008A1100270A168A11CA000A128A1100274F
:102468000A168A11CB000A128A1100270A168A1145
:10247800CC004C08AF004B08AE004A08AD00490834
:10248800AC000A128A1558210A168A1183120313FE
:102498002B08D4002A08D3002908D2002808D10024
:1024A8000A30F2000030F3005508C600C70146089C
:1024B800F4004708F5000A128A11BB270A168A1188
:1024C800720883120313C80001300310C80DFF3EC1
:1024D800031D692A0310480D353E84000A128A112B
:1024E80000270A168A11C9000A128A1100270A163B
:1024F8008A11CA000A128A1100270A168A11CB000B
:102508000A128A1100270A168A11CC004C08AB005F
:102518004B08AA004A08A9004908A8005408AF00B7
:102528005308AE005208AD005108AC000A128A15D3
:1025380058210A168A11831203132B08C5002A088A
:10254800C4002908C3002808C200ED2A3F30AB00A8
:102558000030AA000030A9000030A8005508C600C5
:1025680001300310C60DFF3E031DB52A0310460DAA
:10257800353E84000A128A1100270A168A11C700FC
:102588000A128A1100270A168A11C8000A128A112B
:1025980000270A168A11C9000A128A1100270A168A
:1025A8008A11CA004A08AF004908AE004808AD00C1
:1025B8004708AC000A128A1558210A168A11831294
:1025C80003132B08C5002A08C4002908C3002808DB
:1025D800C20008008312031359088039E60059081D
:1025E800DE005E07E800D81FFA2AFB2AFC2A6814D6
:1025F80068080319002B012B112B680A031D052BF2
:10260800062B0E2B0030D9000030D8000030D70040
:102618000030D600D817D901192B0030D900003066
:10262800D8000030D7000030D6005D088039E700B8
:10263800670866060319212B222B232B66175D08D2
:10264800DE005E07E700DC1F2A2B2B2B2C2B6714E0
:1026580067080319302B312B412B670A031D352BD3
:10266800362B3E2B0030DD000030DC000030DB0074
:102678000030DA00DC17DD01492B0030DD000030C6
:10268800DC000030DB000030DA006808670203185D
:102698004E2B4F2B752B661F522B532B572B8030ED
:1026A800FF007F08E6066808E9006708E80069088F
:1026B800E7005608E9005A08D6006908DA00570802
:1026C800E9005B08D7006908DB005808E9005C08E6
:1026D800D8006908DC005908E9005D08D9006908D4
:1026E800DD00E9016708DE00DF015F08E100680836
:1026F8005E02E000031CE1036108803AFF008030BD
:102708007F02031D892B1A306002031C8C2B8D2B32
:10271800C42B831203135908580457045604031D85
:10272800962B982B0130992B0030E9000030D90006
:102738000030D8000030D7000030D6006708E80025
:10274800CC2B691CA82BA92BB02B6908DE00031021
:102758005E0C0138E900B22B0310E90C561CB52BAE
:10276800B62BB72BE9170130DE00590DD90CD80C60
:10277800D70CD60CDE0BB92B0130FF007F08E80719
:102788008312031367086802031CCB2BCC2BA52BE1
:10279800661BCF2BD02B192C6808031DD42BD52BE7
:1027A800DE2B0030D9000030D8000030D7000030D0
:1027B800D600452D5A08D6075B0803110318013EB9
:1027C8000319E72BD7075C0803110318013E031907
:1027D800EE2BD8075D0803110318013E0319F52BEA
:1027E800D907591CF82BF92BCD2C691CFC2BFD2B78
:1027F800042C6908DE0003105E0C0138E900062C81
:102808000310E90C561C092C0A2C0B2CE917013073
:10281800DE00590DD90CD80CD70CD60CDE0B0D2CBC
:102828000130FF007F08E807CD2C5908803AFF00E7
:102838005D08803A7F02031D2B2C5C085802031D9B
:102848002B2C5B085702031D2B2C5A085602031821
:102858002E2C2F2C872CFF30DE00FF30DF00FF30BE
:10286800E000FF30E1005A08E2005B08E3005C0882
:10287800E4005D08E5005608E2025708031C570FFC
:10288800462C472CE3025808031C580F4C2C4D2C9F
:10289800E4025908031C590F522C532CE502620814
:1028A800DE0763080318630F5A2C5B2CDF076408E4
:1028B8000318640F602C612CE00765080318650A8B
:1028C800E1076108D9006008D8005F08D7005E08F2
:1028D800D6008030FF007F08E606E909E90A6908A2
:1028E800031D772C782C952C0130D607003003185F
:1028F8000130D707003003180130D807003003181B
:102908000130D907952C5A08D6025B08031C5B0FC7
:10291800D7025C08031C5C0FD8025D08031C5D0F1E
:10292800D9025908580457045604031D9C2C9D2CA1
:10293800C92C6908031DA12CA22CC92C0030D90070
:102948000030D8000030D7000030D600452D0130C7
:10295800DE000310D60DD70DD80DD90DDE0BAD2C2A
:10296800E91FB72CB82CB92C5614691CBC2CBD2CEB
:10297800C02C0314E90DC22C0310E90D68080319D3
:10298800C62CC72CC92C0130E802D81FCC2CCD2C62
:10299800AB2CE701E91FD12CD22CE02C69087F3938
:1029A8000319D72CD82CDB2CE701E70AE02C561C9E
:1029B800DE2CDF2CE02CD82C67080319E42CE52C3E
:1029C800192D0130D607003003180130D707003021
:1029D80003180130D807003003180130D907591CF3
:1029E800F62CF72C192D5608DE005708DF0058087A
:1029F800E0005908E1000130E200610DE10CE00C53
:102A0800DF0CDE0CE20B012D6108D9006008D8004C
:102A18005F08D7005E08D600680A0319142D152D23
:102A2800192D0130FF007F08E807680A03191D2DDA
:102A38001E2D232D6808031D222D232D312D003036
:102A4800D9000030D8000030D7000030D600680820
:102A5800031D2F2D302D312DE601681C342D352D09
:102A6800372DD8173B2D7F30FF007F08D805680821
:102A7800DE0003105E0CD900E61F432D442D452DC2
:102A8800D91708000A168A1580220A168A116400C6
:102A980000300A168A15DD220A168A117308831671
:102AA8000313D6007208D5003B3083120313AB0022
:102AB8009F30AA00FF30A900FB30A800831603133B
:102AC8005508F2005608F3000030F31BFF30F400FD
:102AD800F50001300A128A159E200A168A11750817
:102AE80083120313AF007408AE007308AD007208B8
:102AF800AC000A128A1558210A168A118312031388
:102B08002B0883160313D000831203132A08831695
:102B18000313CF0083120313290883160313CE006F
:102B280083120313280883160313CD00423083123F
:102B38000313AB00C830AA000030A9000030A80079
:102B480083160313500883120313AF00831603136D
:102B58004F0883120313AE00831603134E08831223
:102B68000313AD00831603134D0883120313AC003F
:102B78000A128A1558210A168A11831203132B0880
:102B880083160313CC00831203132A088316031336
:102B9800CB0083120313290883160313CA00831278
:102BA8000313280883160313C90083120313861F0F
:102BB800DE2DDF2D3A2E831603134C0883120313E0
:102BC800D800831603134B0883120313D700831608
:102BD80003134A0883120313D60083160313490804
:102BE80083120313D5000A128A1526200A168A11A1
:102BF800831203135608803AFF0080307F02031DBA
:102C0800072E2D30550203180A2E0B2E3A2E831646
:102C180003134C0883120313D800831603134B08BD
:102C280083120313D700831603134A08831203136E
:102C3800D60083160313490883120313D5000A121A
:102C48008A1526200A168A11831203135608803A19
:102C5800FF0080307F02031D332E06305502031C0F
:102C6800362E372E3A2E83120313861364000A1663
:102C78008A1534220A168A11913083160313A80084
:102C88004C08AC004B08AB004A08AA004908A90048
:102C9800D9300A128A111D200A168A11F601F60A7D
:102CA80001300A168A1584230A168A11D9300A16A1
:102CB8008A159A220A168A11063083160313C80049
:102CC8001330C700AD30C600C60B682EC70B682E80
:102CD800C80B682E831603134C0883120313D800FD
:102CE800831603134B0883120313D70083160313A9
:102CF8004A0883120313D600831603134908831264
:102D08000313D5000A128A1526200A168A1183127F
:102D180003135608803AFF0080307F02031D962E69
:102D28002E3055020318992E9A2EC62E8316031399
:102D38004C0883120313D800831603134B0883121D
:102D48000313D700831603134A0883120313D6000C
:102D580083160313490883120313D5000A128A1530
:102D680026200A168A11831203135608803AFF0098
:102D780080307F02031DC22E053055020318C52E70
:102D8800C62EC92E831203138617831603134C0805
:102D980083120313D800831603134B0883120313FB
:102DA800D700831603134A0883120313D600831629
:102DB8000313490883120313D5000A128A15262023
:102DC8000A168A11831203135608803AFF008030CE
:102DD8007F02031DF12E1D305502031CF42EF52E23
:102DE800F92E8312031307162D2F831603134C088D
:102DF80083120313D800831603134B08831203139B
:102E0800D700831603134A0883120313D6008316C8
:102E18000313490883120313D5000A128A152620C2
:102E28000A168A11831203135608803AFF0080306D
:102E38007F02031D212F123055020318242F252F3E
:102E4800292F8312031387162D2F831203130712BA
:102E58008712640001300A168A15DD220A168A11C3
:102E6800730883160313D6007208D5000330831243
:102E78000313A0000030A100831603135608831221
:102E88000313A30083160313550883120313A20028
:102E98000A168A1587250A168A1183120313200831
:102EA800FF3E83160313D50083120313210803186A
:102EB800013EFF3E83160313D6005608803AFF00F2
:102EC80080307F02031D6A2F97305502031C6D2F37
:102ED8006E2F732F83160313D701D801792F013072
:102EE80083160313D7000030D80064000A168A1529
:102EF80034220A168A119E3083160313A800D9308B
:102F08000A128A111D200A168A11F601F60A0130E2
:102F18000A168A1584230A168A11D9300A168A15C0
:102F28009A220A168A118316031357035804031D9D
:102F38009E2F9F2FA82FB130A800D9300A128A11CE
:102F48001D200A168A11B02FAB30A800D9300A12FA
:102F58008A111D200A168A11F601F60A02300A168D
:102F68008A1584230A168A11D9300A168A159A22D4
:102F78000A168A11063083160313C8001330C700D7
:102F8800AD30C600C60BC62FC70BC62FC80BC62F41
:102F98008316031357085804031DD32FD42FDE2F8D
:102FA80051085204031DD92FDA2FDE2F8312031381
:102FB8000717E12F83120313071383160313510313
:102FC8005204031DE82FE92F4B2D7B1083120313A6
:102FD800061CEF2F7B147B1CF22FF32F4B2D83162F
:102FE8000313D101D2010A168A151D220A168A1165
:082FF8004B2D0A128A110C286E
:10341A008316031381150114811401156400080031
:10342A0064008001840A0406031900340406162A7B
:10343A0083120313901010169016DC308E000B3096
:10344A008F0010140800831603131F109F101F11FA
:10345A009F119F17831203131F139F130800003035
:10346A000A168A1566220A168A1501300A168A155C
:10347A0066220A168A150800F300F2013A3073022E
:10348A000318482A492A512A30307302031C4E2A4B
:10349A004F2A512AF201F20A720C0800FF308316F1
:1034AA00031385007F3086008701880181138B17FB
:1034BA000B1601130B170C148312031387018801CF
:1034CA000800F50083120313081175080A168A15F5
:1034DA00BB220A168A158312031388150630F400D4
:1034EA003030F300F30B772AF40B772A00008312AB
:1034FA000313881108000A168A1553220A168A1518
:10350A000A168A1528220A168A150A128A11A0266C
:10351A000A168A150A168A151D220A168A150A1605
:10352A008A150D220A168A150800FA00F801F9010F
:10353A00AF2A78087A07F7007708840000080A1685
:10354A008A150B230A168A150130F8070318F90A97
:10355A000030F90778087A07F700770884008313A0
:10356A000008031DB92ABA2A9E2A0800F200721C12
:10357A00BF2AC02AC42A831203130816C72A831231
:10358A0003130812F21CCA2ACB2ACD2A8816CE2A7D
:10359A008812721DD12AD22AD42A0817D52A0813CA
:1035AA00F21DD82AD92ADB2A8817DC2A88130800B0
:1035BA00F700831203131F14831603139E01831249
:1035CA0003139E01770C031C9F1103189F151F12EA
:1035DA009F120630F6001330F500AD30F400F40BFC
:1035EA00F42AF50BF42AF60BF42AFB2A83120313A6
:1035FA001F150330F400F40B002B831203131E086B
:10360A00F300831603131E08F2000800F60076087A
:10361A000F39F4007608F039F50083120313081500
:10362A007508F30004300310F30CFF3E031D182B3A
:10363A0073080A168A15BB220A168A1583120313FF
:10364A0088150D30F300F30B282B8312031388110E
:10365A0074080A168A15BB220A168A1583120313DE
:10366A0088150D30F300F30B382B831203138811DE
:10367A00080083120313A001A10177087804031933
:10368A00472B482B7F2BA201A20A562B013003108D
:10369A00F70DF80DFF3E031D4C2B0130FF007F088C
:1036AA00A207F81F592B5A2B4B2B01300310A00DE0
:1036BA00A10DFF3E031D5B2B78087A02031D672BC1
:1036CA0077087902031C6A2B6B2B722B7708F90295
:1036DA007808031CFA03FA02201401300310F80CCC
:1036EA00F70CFF3E031D732B0130A202031D7E2B34
:1036FA007F2B5A2B2108F8002008F70008008312B4
:10370A000313A0002003031D8B2B8C2BAB2B7608F5
:10371A007F3EA3002308F70004300310F70CFF3E96
:10372A00031D922B7708A10023080F39A200210854
:10373A000A168A1566220A168A15831203132208A4
:10374A000A168A1566220A168A15CF2B0230200617
:10375A00031DB02BB12BCF2B7608BF3EA300230845
:10376A00F70004300310F70CFF3E031DB72B770850
:10377A00A10023080F39A20021080A168A15662219
:10378A000A168A158312031322080A168A15662254
:10379A000A168A1508000030720583120313A00066
:1037AA0000307305A10080307405A2007F307505D2
:1037BA00A3002308220421042004031DE52BE62B81
:1037CA00EE2B0030F5000030F4000030F30000303A
:1037DA00F20000307605A00000307705A1008030A5
:1037EA007805A2007F307905A3002308220421046A
:1037FA002004031D012C022C0A2C0030F900003091
:10380A00F8000030F7000030F60079087506031D4D
:10381A00182C78087406031D182C77087306031DE4
:10382A00182C7608720603191B2C1C2C1E2C03104C
:10383A001F2C03140800803083160313A3062708DD
:10384A0083120313D9008316031326088312031362
:10385A00D80083160313250883120313D70083168F
:10386A000313240883120313D600831603132308B1
:10387A0083120313DD008316031322088312031332
:10388A00DC0083160313210883120313DB0083165B
:10389A000313200883120313DA000A168A11EE2290
:1038AA000A168A1583120313590883160313A300F1
:1038BA0083120313580883160313A20083120313F7
:1038CA00570883160313A10083120313560883169D
:1038DA000313A00008007508740473047204031922
:1038EA00772C782CBD2C83120313A001A00A8A2CF2
:1038FA000130FA000310F20DF30DF40DF50DFA0B79
:10390A007F2C0130FF007F08A007F51F8D2C8E2C1D
:10391A007D2C75087902031D9C2C74087802031DFE
:10392A009C2C73087702031D9C2C72087602031CD8
:10393A009F2CA02CAE2C7208F6027308031C730F7E
:10394A00F7027408031C740FF8027508031C750F3C
:10395A00F90201300310F50CF40CF30CF20CFF3EE3
:10396A00031DAF2C0130A002031DBC2CBD2C8E2CD4
:10397A007908F5007808F4007708F3007608F20071
:10398A000800F701F51FCA2CCB2CD22CF409F50933
:10399A00F40A0319F50AF701F70AF31FD52CD62CF6
:1039AA00DB2CF209F309F20A0319F30A7208730409
:1039BA000319E02CE12C102DF601F60AEF2C013048
:1039CA000310F20DF30DFF3E031DE52C0130FF003D
:1039DA007F08F607F31FF22CF32CE42C7308750208
:1039EA00031DF92C72087402031CFC2CFD2C032DF8
:1039FA007208F4027308031CF503F5020130031080
:103A0A00F30CF20CFF3E031D042D0130F602031DD8
:103A1A000F2D102DF32C77080319142D152D1A2D9F
:103A2A00F409F509F40A0319F50A7508F30074088C
:103A3A00F2000800003083120313A3000030A20032
:103A4A000030A1000030A0007508740473047204E9
:103A5A000319302D312D7E2DA401A40A412D0130E8
:103A6A00FA000310F20DF30DF40DF50DFA0B362DD5
:103A7A000130FF007F08A407F51F442D452D342D82
:103A8A000130FA000310A00DA10DA20DA30DFA0B2F
:103A9A00472D75087902031D5C2D74087802031DF1
:103AAA005C2D73087702031D5C2D72087602031CD5
:103ABA005F2D602D6F2D7208F6027308031C730FB9
:103ACA00F7027408031C740FF8027508031C750FBB
:103ADA00F902201401300310F50CF40CF30CF20C6B
:103AEA00FF3E031D702D0130A402031D7D2D7E2D86
:103AFA00452D2308F5002208F4002108F3002008C8
:103B0A00F200080083120313A501A11F8D2D8E2D2B
:103B1A00952DA009A109A00A0319A10AA501A50AC0
:103B2A00A31F982D992DA22DA209A309A20A031950
:103B3A00A30A0130FF007F08A506A601A7012008F5
:103B4A0021040319A92DAA2DE12DA401A40AB82D37
:103B5A0001300310A00DA10DFF3E031DAE2D013053
:103B6A00FF007F08A407A11FBB2DBC2DAD2D01307E
:103B7A000310A60DA70DFF3E031DBD2D210823022C
:103B8A00031DC92D20082202031CCC2DCD2DD42DB6
:103B9A002008A2022108031CA303A3022614013051
:103BAA000310A10CA00CFF3E031DD52D0130A40269
:103BBA00031DE02DE12DBC2D25080319E52DE62D69
:103BCA00EB2DA609A709A60A0319A70A2708A10027
:103BDA002608A00008000030720583120313A00013
:103BEA0000307305A10080307405A2007F3075058E
:103BFA00A3002308220421042004031D052E062EF7
:103C0A000E2E0030F5000030F4000030F3000030D2
:103C1A00F20000307605A00000307705A100803060
:103C2A007805A2007F307905A30023082204210425
:103C3A002004031D212E222E2A2E0030F9000030E6
:103C4A00F8000030F7000030F600F51F2D2E2E2E5A
:103C5A00522E0030A0000030A1000030A2008030B7
:103C6A00A3007208A0027308031C730F3D2E3E2E98
:103C7A00A1027408031C740F432E442EA202750875
:103C8A00031C750F492E4A2EA3022308F5002208A9
:103C9A00F4002108F3002008F200F91F552E562ED1
:103CAA007A2E0030A0000030A1000030A20080303F
:103CBA00A3007608A0027708031C770F652E662EEC
:103CCA00A1027808031C780F6B2E6C2EA2027908C9
:103CDA00031C790F712E722EA3022308F900220801
:103CEA00F8002108F7002008F6008030F506803039
:103CFA00F90679087502031D8C2E78087402031DD3
:103D0A008C2E77087302031D8C2E76087202031814
:103D1A008F2E902E922E0310932E031408008312D6
:103D2A0003130C1C992E9A2E322F0C10DC308E00A5
:103D3A000B308F00013083160313D3070318D40AFC
:103D4A000030D4073C3053065404031DAD2EAE2E6A
:103D5A00322F8312031387177B11861EB52E7B150C
:103D6A00FB1083120313061FBB2EFB147B1DBE2EF2
:103D7A00BF2EF32E8312031307147B13061DC62EC0
:103D8A007B17CE2E64007B1383120313061DCE2EDF
:103D9A007B177B1BD12ED22EC72E8312031307103B
:103DAA007B13061DD92E7B177B1BDC2EDD2EF32EF3
:103DBA00831203138714FB12861CE42EFB16EC2EC7
:103DCA006400FB1283120313861CEC2EFB16FB1AEB
:103DDA00EF2EF02EE52E831203138710FB1CF62E0E
:103DEA00F72E2B2F8312031307157B12061EFE2EA6
:103DFA007B16062F64007B1283120313061E062FFE
:103E0A007B167B1A092F0A2FFF2E83120313071121
:103E1A007B12061E112F7B167B1A142F152F2B2FA0
:103E2A00831203138715FB11861D1C2FFB15242FE4
:103E3A006400FB1183120313861D242FFB15FB1943
:103E4A00272F282F1D2F831203138711831603137D
:103E5A00D301D4018312031387138B1C352F362FFA
:103E6A00422F83120713013083160313D100003047
:103E7A00D2008312031310108B1071088A00700E7F
:103E8A008300FE0E7E0E0900720883120313A0003F
:103E9A007308A1007408A2000310210D220DA800C6
:103EAA002808031D592F5A2F632F0030F5000030C0
:103EBA00F4000030F3000030F200FF2F7608A00073
:103ECA007708A1007808A2000310210D220DA7008F
:103EDA002708031D712F722F732F5A2FF317FF30E4
:103EEA00F205FF30F3050030F405F717FF30F60549
:103EFA00FF30F7050030F8050030A6000030A500B5
:103F0A000030A4000030A3007F30A80298302707B1
:103F1A00A0002008A8021830A7000130A000031052
:103F2A00A30DA40DA50DA60DA00B942F780874025D
:103F3A00031DA52F77087302031DA52F76087202A9
:103F4A00031CA82FA92FB42F7608F2027708031CA6
:103F5A00770FF3027808031C780AF402231401305D
:103F6A000310F20DF30DF40DFF3E031DB52F0130C2
:103F7A00A702031DC12FC22F922FA81FC52FC62F1C
:103F8A00E02F2808803A973E0318CC2FCD2FCE2F4A
:103F9A005A2F01300310A60CA50CA40CA30CFF3E4B
:103FAA00031DCF2F0130FF007F08A807031DDE2F56
:103FBA00DF2FCE2FF72F18302802031CE52FE62F0C
:103FCA00F22F5A2F0130A0000310A30DA40DA50D46
:103FDA00A60DA00BE92F0130A8022808031DF62F11
:103FEA00F72FE72F2608F5002508F4002408F30028
:063FFA002308F20008009C
:02400E00763FFB
:00000001FF
